{
  "contractName": "TronNameService",
  "abi": [
    {
      "inputs": [],
      "payable": false,
      "stateMutability": "nonpayable",
      "type": "constructor"
    },
    {
      "constant": false,
      "inputs": [
        {
          "name": "name",
          "type": "string"
        }
      ],
      "name": "setAddress",
      "outputs": [],
      "payable": true,
      "stateMutability": "payable",
      "type": "function"
    },
    {
      "constant": true,
      "inputs": [
        {
          "name": "name",
          "type": "string"
        }
      ],
      "name": "getRecord",
      "outputs": [
        {
          "name": "",
          "type": "address"
        },
        {
          "name": "",
          "type": "uint256"
        },
        {
          "name": "",
          "type": "uint256"
        }
      ],
      "payable": false,
      "stateMutability": "view",
      "type": "function"
    },
    {
      "constant": true,
      "inputs": [],
      "name": "checkPendingWithdraw",
      "outputs": [
        {
          "name": "",
          "type": "uint256"
        }
      ],
      "payable": false,
      "stateMutability": "view",
      "type": "function"
    },
    {
      "constant": false,
      "inputs": [],
      "name": "withdraw",
      "outputs": [],
      "payable": false,
      "stateMutability": "nonpayable",
      "type": "function"
    }
  ],
  "bytecode": "0x60806040526001600055601e6001556201518060025534801561002157600080fd5b5033600360006101000a81548173ffffffffffffffffffffffffffffffffffffffff021916908373ffffffffffffffffffffffffffffffffffffffff160217905550610c8a806100726000396000f300608060405260043610610062576000357c0100000000000000000000000000000000000000000000000000000000900463ffffffff1680630599c2841461006757806311dd8845146100c3578063185c6be01461017a5780633ccfd60b146101a5575b600080fd5b6100c1600480360381019080803590602001908201803590602001908080601f01602080910402602001604051908101604052809392919081815260200183838082843782019150505050505091929192905050506101bc565b005b3480156100cf57600080fd5b5061012a600480360381019080803590602001908201803590602001908080601f0160208091040260200160405190810160405280939291908181526020018383808284378201915050505050509192919290505050610905565b604051808473ffffffffffffffffffffffffffffffffffffffff1673ffffffffffffffffffffffffffffffffffffffff168152602001838152602001828152602001935050505060405180910390f35b34801561018657600080fd5b5061018f610a84565b6040518082815260200191505060405180910390f35b3480156101b157600080fd5b506101ba610ace565b005b600080426004846040518082805190602001908083835b6020831015156101f857805182526020820191506020810190506020830392506101d3565b6001836020036101000a0380198251168184511680821785525050505050509050019150509081526020016040518091039020600201541115151561023c57600080fd5b600073ffffffffffffffffffffffffffffffffffffffff166004846040518082805190602001908083835b60208310151561028c5780518252602082019150602081019050602083039250610267565b6001836020036101000a038019825116818451168082178552505050505050905001915050908152602001604051809103902060000160009054906101000a900473ffffffffffffffffffffffffffffffffffffffff1673ffffffffffffffffffffffffffffffffffffffff16141561058357620f4240341015151561031157600080fd5b61037f60056000600360009054906101000a900473ffffffffffffffffffffffffffffffffffffffff1673ffffffffffffffffffffffffffffffffffffffff1673ffffffffffffffffffffffffffffffffffffffff1681526020019081526020016000206000015434610bf2565b60056000600360009054906101000a900473ffffffffffffffffffffffffffffffffffffffff1673ffffffffffffffffffffffffffffffffffffffff1673ffffffffffffffffffffffffffffffffffffffff16815260200190815260200160002060000181905550336004846040518082805190602001908083835b60208310151561042057805182526020820191506020810190506020830392506103fb565b6001836020036101000a038019825116818451168082178552505050505050905001915050908152602001604051809103902060000160006101000a81548173ffffffffffffffffffffffffffffffffffffffff021916908373ffffffffffffffffffffffffffffffffffffffff160217905550346004846040518082805190602001908083835b6020831015156104cd57805182526020820191506020810190506020830392506104a8565b6001836020036101000a03801982511681845116808217855250505050505090500191505090815260200160405180910390206001018190555060025442016004846040518082805190602001908083835b602083101515610544578051825260208201915060208101905060208303925061051f565b6001836020036101000a038019825116818451168082178552505050505050905001915050908152602001604051809103902060020181905550610900565b6106076106006004856040518082805190602001908083835b6020831015156105c1578051825260208201915060208101905060208303925061059c565b6001836020036101000a038019825116818451168082178552505050505050905001915050908152602001604051809103902060010154600154610c10565b6064610c43565b91506106816004846040518082805190602001908083835b602083101515610644578051825260208201915060208101905060208303925061061f565b6001836020036101000a03801982511681845116808217855250505050505090500191505090815260200160405180910390206001015483610bf2565b905080341015151561069257600080fd5b61070060056000600360009054906101000a900473ffffffffffffffffffffffffffffffffffffffff1673ffffffffffffffffffffffffffffffffffffffff1673ffffffffffffffffffffffffffffffffffffffff1681526020019081526020016000206000015434610bf2565b60056000600360009054906101000a900473ffffffffffffffffffffffffffffffffffffffff1673ffffffffffffffffffffffffffffffffffffffff1673ffffffffffffffffffffffffffffffffffffffff16815260200190815260200160002060000181905550336004846040518082805190602001908083835b6020831015156107a1578051825260208201915060208101905060208303925061077c565b6001836020036101000a038019825116818451168082178552505050505050905001915050908152602001604051809103902060000160006101000a81548173ffffffffffffffffffffffffffffffffffffffff021916908373ffffffffffffffffffffffffffffffffffffffff160217905550346004846040518082805190602001908083835b60208310151561084e5780518252602082019150602081019050602083039250610829565b6001836020036101000a03801982511681845116808217855250505050505090500191505090815260200160405180910390206001018190555060025442016004846040518082805190602001908083835b6020831015156108c557805182526020820191506020810190506020830392506108a0565b6001836020036101000a0380198251168184511680821785525050505050509050019150509081526020016040518091039020600201819055505b505050565b60008060006004846040518082805190602001908083835b602083101515610942578051825260208201915060208101905060208303925061091d565b6001836020036101000a038019825116818451168082178552505050505050905001915050908152602001604051809103902060000160009054906101000a900473ffffffffffffffffffffffffffffffffffffffff166004856040518082805190602001908083835b6020831015156109d157805182526020820191506020810190506020830392506109ac565b6001836020036101000a0380198251168184511680821785525050505050509050019150509081526020016040518091039020600101546004866040518082805190602001908083835b602083101515610a405780518252602082019150602081019050602083039250610a1b565b6001836020036101000a0380198251168184511680821785525050505050509050019150509081526020016040518091039020600201549250925092509193909250565b6000600560003373ffffffffffffffffffffffffffffffffffffffff1673ffffffffffffffffffffffffffffffffffffffff16815260200190815260200160002060000154905090565b600080600560003373ffffffffffffffffffffffffffffffffffffffff1673ffffffffffffffffffffffffffffffffffffffff168152602001908152602001600020600001541115610bef57600560003373ffffffffffffffffffffffffffffffffffffffff1673ffffffffffffffffffffffffffffffffffffffff1681526020019081526020016000206000015490506000600560003373ffffffffffffffffffffffffffffffffffffffff1673ffffffffffffffffffffffffffffffffffffffff168152602001908152602001600020600001819055503373ffffffffffffffffffffffffffffffffffffffff166108fc829081150290604051600060405180830381858888f19350505050158015610bed573d6000803e3d6000fd5b505b50565b6000808284019050838110151515610c0657fe5b8091505092915050565b60008082840290506000841480610c315750828482811515610c2e57fe5b04145b1515610c3957fe5b8091505092915050565b6000808284811515610c5157fe5b04905080915050929150505600a165627a7a7230582006fd7fc6b4e7c93021af3c08a95b0a6f72b86188301d5853c8c3634da3698d650029",
  "source": "pragma solidity ^0.4.23;\n\ncontract TronNameService\n{\n    uint defaultPrice = 1;\n    uint incrementRate = 30;\n    uint cooldownTime = 1 days;\n    address admin;\n\n    struct Record {\n        address owner;\n        uint price;\n        uint cooldown;\n    }\n\n    struct User {\n        uint pendingWithdraw;\n    }\n\n    mapping (string => Record) records;\n    mapping (address => User) users;\n\n    constructor() public {\n        admin = msg.sender;\n    }\n\n    function setAddress(string name) public payable {\n        uint increase;\n        uint price;\n\n        require(records[name].cooldown <= now);\n\n        if (records[name].owner == address(0)) {\n            require(msg.value >= 1000000);\n            users[admin].pendingWithdraw = SafeMath.add(users[admin].pendingWithdraw, msg.value);\n            records[name].owner = msg.sender;\n            records[name].price = msg.value;\n            records[name].cooldown = uint(now + cooldownTime);\n        } else {\n            increase = SafeMath.div(SafeMath.mul(records[name].price, incrementRate), 100);\n            price = SafeMath.add(records[name].price, increase);\n            require(msg.value >= price);\n            users[admin].pendingWithdraw = SafeMath.add(users[admin].pendingWithdraw, msg.value);\n            records[name].owner = msg.sender;\n            records[name].price = msg.value;\n            records[name].cooldown = uint(now + cooldownTime);\n        }\n    }\n\n    function getRecord(string name) public view returns (address, uint, uint) {\n        return (records[name].owner, records[name].price, records[name].cooldown);\n    }\n\n    function checkPendingWithdraw() public view returns (uint) {\n        return users[msg.sender].pendingWithdraw;\n    }\n\n    function withdraw() public {\n        if (users[msg.sender].pendingWithdraw > 0) {\n            uint amount = users[msg.sender].pendingWithdraw;\n            users[msg.sender].pendingWithdraw = 0;\n            msg.sender.transfer(amount);\n        }\n    }\n}\n\nlibrary SafeMath {\n    function mul(uint256 a, uint256 b) internal pure returns (uint256) {\n        uint256 c = a * b;\n        assert(a == 0 || c / a == b);\n        return c;\n    }\n\n    function div(uint256 a, uint256 b) internal pure returns (uint256) {\n        uint256 c = a / b;\n        return c;\n    }\n\n    function sub(uint256 a, uint256 b) internal pure returns (uint256) {\n        assert(b <= a);\n        return a - b;\n    }\n\n    function add(uint256 a, uint256 b) internal pure returns (uint256) {\n        uint256 c = a + b;\n        assert(c >= a);\n        return c;\n    }\n}\n",
  "sourcePath": "/Users/zhengweiting/Project/tns/contracts/TronNameService.sol",
  "compiler": {
    "name": "solc",
    "version": "0.4.24-develop.2018.8.28+commit.3ba0cdec.mod.Emscripten.clang"
  },
  "schemaVersion": "2.0.1",
  "updatedAt": "2018-12-21T02:13:01.958Z"
}